{
    "contractName": "Vaccination",
    "abi": [
        {
            "inputs": [
                {
                    "internalType": "address",
                    "name": "previousAddresses",
                    "type": "address"
                }
            ],
            "stateMutability": "nonpayable",
            "type": "constructor"
        },
        {
            "inputs": [
                {
                    "internalType": "address",
                    "name": "_address",
                    "type": "address"
                }
            ],
            "name": "VaccinationShot",
            "outputs": [
                {
                    "internalType": "string",
                    "name": "",
                    "type": "string"
                }
            ],
            "stateMutability": "nonpayable",
            "type": "function"
        }
    ],
    "bytecode": "608060405234801561001057600080fd5b5060405161049c38038061049c8339818101604052602081101561003357600080fd5b5051600080546001600160a01b039092166001600160a01b0319909216919091179055610437806100656000396000f3fe608060405234801561001057600080fd5b506004361061002b5760003560e01c80636f4ab8eb14610030575b600080fd5b6100566004803603602081101561004657600080fd5b50356001600160a01b03166100cb565b6040805160208082528351818301528351919283929083019185019080838360005b83811015610090578181015183820152602001610078565b50505050905090810190601f1680156100bd5780820380516001836020036101000a031916815260200191505b509250505060405180910390f35b6000546040805163102b067760e21b81526001600160a01b038481166004830152825160609491909116926340ac19dc9260248082019391829003018186803b15801561011757600080fd5b505afa15801561012b573d6000803e3d6000fd5b505050506040513d604081101561014157600080fd5b5080516020918201516001600160a01b038516600090815260019384905260409020808401805460ff191692151592909217918290559190915560ff1615151480156101af57506001600160a01b03821660009081526001602081905260409091200154610100900460ff16155b156101fd576001600160a01b038216600090815260016020818152604092839020909101805461ff001916610100179055815160608101909252602a8083529061034f908301399050610349565b6001600160a01b038216600090815260016020526040902054603c10801561024757506001600160a01b03821660009081526001602081905260409091200154610100900460ff16155b15610295576001600160a01b038216600090815260016020818152604092839020909101805461ff00191661010017905581516060810190925260338083529061039c908301399050610349565b6001600160a01b03821660009081526001602052604090205460281080156102df57506001600160a01b03821660009081526001602081905260409091200154610100900460ff16155b1561032d576001600160a01b038216600090815260016020818152604092839020909101805461ff0019166101001790558151606081019092526033808352906103cf908301399050610349565b6040518060600160405280602381526020016103796023913990505b91905056fe5375636365737366756c6c792056616363696e61746564204865616c7468204361726520576f726b6572506572736f6e206e6f7420656c696769626c6520666f722056616363696e6174696f6e5375636365737366756c6c792056616363696e6174656420506572736f6e206f766572203630205965617273206f66204167655375636365737366756c6c792056616363696e6174656420506572736f6e206f766572203430205965617273206f6620416765a264697066735822122077cc92cdb7da37d8f64653bd2d7058fd01d4de408d265308bfd0cf9ec0a7234d64736f6c63430007040033",
    "sourcePath": "e:/Blockchain/Q3 Classes/Assignment 2/VaccineRollout.sol",
    "compiler": {
        "name": "solc",
        "version": "0.7.4+commit.3f05b770"
    },
    "functionHashes": {
        "VaccinationShot(address)": "6f4ab8eb"
    },
    "gasEstimates": {
        "creation": {
            "codeDepositCost": "215800",
            "executionCost": "infinite",
            "totalCost": "infinite"
        },
        "external": {
            "VaccinationShot(address)": "infinite"
        }
    }
}